{
  "_format": "hh-sol-artifact-1",
  "contractName": "MooveNFT",
  "sourceName": "contracts/MooveNFT.sol",
  "abi": [
    {
      "inputs": [],
      "stateMutability": "nonpayable",
      "type": "constructor"
    },
    {
      "inputs": [
        {
          "internalType": "address",
          "name": "sender",
          "type": "address"
        },
        {
          "internalType": "uint256",
          "name": "tokenId",
          "type": "uint256"
        },
        {
          "internalType": "address",
          "name": "owner",
          "type": "address"
        }
      ],
      "name": "ERC721IncorrectOwner",
      "type": "error"
    },
    {
      "inputs": [
        {
          "internalType": "address",
          "name": "operator",
          "type": "address"
        },
        {
          "internalType": "uint256",
          "name": "tokenId",
          "type": "uint256"
        }
      ],
      "name": "ERC721InsufficientApproval",
      "type": "error"
    },
    {
      "inputs": [
        {
          "internalType": "address",
          "name": "approver",
          "type": "address"
        }
      ],
      "name": "ERC721InvalidApprover",
      "type": "error"
    },
    {
      "inputs": [
        {
          "internalType": "address",
          "name": "operator",
          "type": "address"
        }
      ],
      "name": "ERC721InvalidOperator",
      "type": "error"
    },
    {
      "inputs": [
        {
          "internalType": "address",
          "name": "owner",
          "type": "address"
        }
      ],
      "name": "ERC721InvalidOwner",
      "type": "error"
    },
    {
      "inputs": [
        {
          "internalType": "address",
          "name": "receiver",
          "type": "address"
        }
      ],
      "name": "ERC721InvalidReceiver",
      "type": "error"
    },
    {
      "inputs": [
        {
          "internalType": "address",
          "name": "sender",
          "type": "address"
        }
      ],
      "name": "ERC721InvalidSender",
      "type": "error"
    },
    {
      "inputs": [
        {
          "internalType": "uint256",
          "name": "tokenId",
          "type": "uint256"
        }
      ],
      "name": "ERC721NonexistentToken",
      "type": "error"
    },
    {
      "inputs": [
        {
          "internalType": "address",
          "name": "owner",
          "type": "address"
        }
      ],
      "name": "OwnableInvalidOwner",
      "type": "error"
    },
    {
      "inputs": [
        {
          "internalType": "address",
          "name": "account",
          "type": "address"
        }
      ],
      "name": "OwnableUnauthorizedAccount",
      "type": "error"
    },
    {
      "inputs": [],
      "name": "ReentrancyGuardReentrantCall",
      "type": "error"
    },
    {
      "anonymous": false,
      "inputs": [
        {
          "indexed": true,
          "internalType": "address",
          "name": "owner",
          "type": "address"
        },
        {
          "indexed": true,
          "internalType": "address",
          "name": "approved",
          "type": "address"
        },
        {
          "indexed": true,
          "internalType": "uint256",
          "name": "tokenId",
          "type": "uint256"
        }
      ],
      "name": "Approval",
      "type": "event"
    },
    {
      "anonymous": false,
      "inputs": [
        {
          "indexed": true,
          "internalType": "address",
          "name": "owner",
          "type": "address"
        },
        {
          "indexed": true,
          "internalType": "address",
          "name": "operator",
          "type": "address"
        },
        {
          "indexed": false,
          "internalType": "bool",
          "name": "approved",
          "type": "bool"
        }
      ],
      "name": "ApprovalForAll",
      "type": "event"
    },
    {
      "anonymous": false,
      "inputs": [
        {
          "indexed": true,
          "internalType": "address",
          "name": "previousOwner",
          "type": "address"
        },
        {
          "indexed": true,
          "internalType": "address",
          "name": "newOwner",
          "type": "address"
        }
      ],
      "name": "OwnershipTransferred",
      "type": "event"
    },
    {
      "anonymous": false,
      "inputs": [
        {
          "indexed": true,
          "internalType": "address",
          "name": "from",
          "type": "address"
        },
        {
          "indexed": true,
          "internalType": "address",
          "name": "to",
          "type": "address"
        },
        {
          "indexed": true,
          "internalType": "uint256",
          "name": "tokenId",
          "type": "uint256"
        }
      ],
      "name": "Transfer",
      "type": "event"
    },
    {
      "inputs": [
        {
          "internalType": "address",
          "name": "to",
          "type": "address"
        },
        {
          "internalType": "uint256",
          "name": "tokenId",
          "type": "uint256"
        }
      ],
      "name": "approve",
      "outputs": [],
      "stateMutability": "nonpayable",
      "type": "function"
    },
    {
      "inputs": [
        {
          "internalType": "uint256",
          "name": "",
          "type": "uint256"
        }
      ],
      "name": "auctionEnds",
      "outputs": [
        {
          "internalType": "uint256",
          "name": "",
          "type": "uint256"
        }
      ],
      "stateMutability": "view",
      "type": "function"
    },
    {
      "inputs": [
        {
          "internalType": "address",
          "name": "owner",
          "type": "address"
        }
      ],
      "name": "balanceOf",
      "outputs": [
        {
          "internalType": "uint256",
          "name": "",
          "type": "uint256"
        }
      ],
      "stateMutability": "view",
      "type": "function"
    },
    {
      "inputs": [
        {
          "internalType": "uint256",
          "name": "tokenId",
          "type": "uint256"
        }
      ],
      "name": "bid",
      "outputs": [],
      "stateMutability": "payable",
      "type": "function"
    },
    {
      "inputs": [
        {
          "internalType": "uint256",
          "name": "price",
          "type": "uint256"
        },
        {
          "internalType": "string",
          "name": "rarity",
          "type": "string"
        },
        {
          "internalType": "string",
          "name": "discount",
          "type": "string"
        },
        {
          "internalType": "string",
          "name": "discountOn",
          "type": "string"
        }
      ],
      "name": "createNFT",
      "outputs": [],
      "stateMutability": "nonpayable",
      "type": "function"
    },
    {
      "inputs": [
        {
          "internalType": "uint256",
          "name": "tokenId",
          "type": "uint256"
        }
      ],
      "name": "getApproved",
      "outputs": [
        {
          "internalType": "address",
          "name": "",
          "type": "address"
        }
      ],
      "stateMutability": "view",
      "type": "function"
    },
    {
      "inputs": [
        {
          "internalType": "uint256",
          "name": "tokenId",
          "type": "uint256"
        }
      ],
      "name": "getAuctionDuration",
      "outputs": [
        {
          "internalType": "uint256",
          "name": "",
          "type": "uint256"
        }
      ],
      "stateMutability": "view",
      "type": "function"
    },
    {
      "inputs": [
        {
          "internalType": "uint256",
          "name": "tokenId",
          "type": "uint256"
        }
      ],
      "name": "getPrice",
      "outputs": [
        {
          "internalType": "uint256",
          "name": "",
          "type": "uint256"
        }
      ],
      "stateMutability": "view",
      "type": "function"
    },
    {
      "inputs": [
        {
          "internalType": "uint256",
          "name": "tokenId",
          "type": "uint256"
        }
      ],
      "name": "getPurchaseHistory",
      "outputs": [
        {
          "components": [
            {
              "internalType": "address",
              "name": "buyer",
              "type": "address"
            },
            {
              "internalType": "address",
              "name": "seller",
              "type": "address"
            },
            {
              "internalType": "uint256",
              "name": "price",
              "type": "uint256"
            },
            {
              "internalType": "uint256",
              "name": "timestamp",
              "type": "uint256"
            },
            {
              "internalType": "string",
              "name": "transactionType",
              "type": "string"
            }
          ],
          "internalType": "struct MooveNFT.PurchaseHistory[]",
          "name": "",
          "type": "tuple[]"
        }
      ],
      "stateMutability": "view",
      "type": "function"
    },
    {
      "inputs": [
        {
          "internalType": "uint256",
          "name": "tokenId",
          "type": "uint256"
        }
      ],
      "name": "getTokenAttributes",
      "outputs": [
        {
          "internalType": "string",
          "name": "",
          "type": "string"
        }
      ],
      "stateMutability": "view",
      "type": "function"
    },
    {
      "inputs": [
        {
          "internalType": "uint256",
          "name": "",
          "type": "uint256"
        }
      ],
      "name": "highestBid",
      "outputs": [
        {
          "internalType": "uint256",
          "name": "",
          "type": "uint256"
        }
      ],
      "stateMutability": "view",
      "type": "function"
    },
    {
      "inputs": [
        {
          "internalType": "uint256",
          "name": "",
          "type": "uint256"
        }
      ],
      "name": "highestBidder",
      "outputs": [
        {
          "internalType": "address",
          "name": "",
          "type": "address"
        }
      ],
      "stateMutability": "view",
      "type": "function"
    },
    {
      "inputs": [
        {
          "internalType": "address",
          "name": "owner",
          "type": "address"
        },
        {
          "internalType": "address",
          "name": "operator",
          "type": "address"
        }
      ],
      "name": "isApprovedForAll",
      "outputs": [
        {
          "internalType": "bool",
          "name": "",
          "type": "bool"
        }
      ],
      "stateMutability": "view",
      "type": "function"
    },
    {
      "inputs": [
        {
          "internalType": "uint256",
          "name": "",
          "type": "uint256"
        }
      ],
      "name": "isForSale",
      "outputs": [
        {
          "internalType": "bool",
          "name": "",
          "type": "bool"
        }
      ],
      "stateMutability": "view",
      "type": "function"
    },
    {
      "inputs": [],
      "name": "name",
      "outputs": [
        {
          "internalType": "string",
          "name": "",
          "type": "string"
        }
      ],
      "stateMutability": "view",
      "type": "function"
    },
    {
      "inputs": [],
      "name": "nextTokenId",
      "outputs": [
        {
          "internalType": "uint256",
          "name": "",
          "type": "uint256"
        }
      ],
      "stateMutability": "view",
      "type": "function"
    },
    {
      "inputs": [],
      "name": "owner",
      "outputs": [
        {
          "internalType": "address",
          "name": "",
          "type": "address"
        }
      ],
      "stateMutability": "view",
      "type": "function"
    },
    {
      "inputs": [
        {
          "internalType": "uint256",
          "name": "tokenId",
          "type": "uint256"
        }
      ],
      "name": "ownerOf",
      "outputs": [
        {
          "internalType": "address",
          "name": "",
          "type": "address"
        }
      ],
      "stateMutability": "view",
      "type": "function"
    },
    {
      "inputs": [
        {
          "internalType": "uint256",
          "name": "",
          "type": "uint256"
        },
        {
          "internalType": "uint256",
          "name": "",
          "type": "uint256"
        }
      ],
      "name": "purchaseHistories",
      "outputs": [
        {
          "internalType": "address",
          "name": "buyer",
          "type": "address"
        },
        {
          "internalType": "address",
          "name": "seller",
          "type": "address"
        },
        {
          "internalType": "uint256",
          "name": "price",
          "type": "uint256"
        },
        {
          "internalType": "uint256",
          "name": "timestamp",
          "type": "uint256"
        },
        {
          "internalType": "string",
          "name": "transactionType",
          "type": "string"
        }
      ],
      "stateMutability": "view",
      "type": "function"
    },
    {
      "inputs": [
        {
          "internalType": "uint256",
          "name": "tokenId",
          "type": "uint256"
        }
      ],
      "name": "purchaseNFT",
      "outputs": [],
      "stateMutability": "payable",
      "type": "function"
    },
    {
      "inputs": [
        {
          "internalType": "uint256",
          "name": "tokenId",
          "type": "uint256"
        }
      ],
      "name": "redeemNFT",
      "outputs": [],
      "stateMutability": "nonpayable",
      "type": "function"
    },
    {
      "inputs": [
        {
          "internalType": "uint256",
          "name": "",
          "type": "uint256"
        },
        {
          "internalType": "address",
          "name": "",
          "type": "address"
        }
      ],
      "name": "refunds",
      "outputs": [
        {
          "internalType": "uint256",
          "name": "",
          "type": "uint256"
        }
      ],
      "stateMutability": "view",
      "type": "function"
    },
    {
      "inputs": [],
      "name": "renounceOwnership",
      "outputs": [],
      "stateMutability": "nonpayable",
      "type": "function"
    },
    {
      "inputs": [
        {
          "internalType": "address",
          "name": "from",
          "type": "address"
        },
        {
          "internalType": "address",
          "name": "to",
          "type": "address"
        },
        {
          "internalType": "uint256",
          "name": "tokenId",
          "type": "uint256"
        }
      ],
      "name": "safeTransferFrom",
      "outputs": [],
      "stateMutability": "nonpayable",
      "type": "function"
    },
    {
      "inputs": [
        {
          "internalType": "address",
          "name": "from",
          "type": "address"
        },
        {
          "internalType": "address",
          "name": "to",
          "type": "address"
        },
        {
          "internalType": "uint256",
          "name": "tokenId",
          "type": "uint256"
        },
        {
          "internalType": "bytes",
          "name": "data",
          "type": "bytes"
        }
      ],
      "name": "safeTransferFrom",
      "outputs": [],
      "stateMutability": "nonpayable",
      "type": "function"
    },
    {
      "inputs": [
        {
          "internalType": "uint256",
          "name": "tokenId",
          "type": "uint256"
        },
        {
          "internalType": "uint256",
          "name": "price",
          "type": "uint256"
        }
      ],
      "name": "sale",
      "outputs": [],
      "stateMutability": "nonpayable",
      "type": "function"
    },
    {
      "inputs": [
        {
          "internalType": "address",
          "name": "operator",
          "type": "address"
        },
        {
          "internalType": "bool",
          "name": "approved",
          "type": "bool"
        }
      ],
      "name": "setApprovalForAll",
      "outputs": [],
      "stateMutability": "nonpayable",
      "type": "function"
    },
    {
      "inputs": [
        {
          "internalType": "uint256",
          "name": "tokenId",
          "type": "uint256"
        },
        {
          "internalType": "uint256",
          "name": "durationInDays",
          "type": "uint256"
        }
      ],
      "name": "startAuction",
      "outputs": [],
      "stateMutability": "nonpayable",
      "type": "function"
    },
    {
      "inputs": [
        {
          "internalType": "bytes4",
          "name": "interfaceId",
          "type": "bytes4"
        }
      ],
      "name": "supportsInterface",
      "outputs": [
        {
          "internalType": "bool",
          "name": "",
          "type": "bool"
        }
      ],
      "stateMutability": "view",
      "type": "function"
    },
    {
      "inputs": [],
      "name": "symbol",
      "outputs": [
        {
          "internalType": "string",
          "name": "",
          "type": "string"
        }
      ],
      "stateMutability": "view",
      "type": "function"
    },
    {
      "inputs": [
        {
          "internalType": "uint256",
          "name": "",
          "type": "uint256"
        }
      ],
      "name": "tokenAttributes",
      "outputs": [
        {
          "internalType": "string",
          "name": "",
          "type": "string"
        }
      ],
      "stateMutability": "view",
      "type": "function"
    },
    {
      "inputs": [
        {
          "internalType": "uint256",
          "name": "",
          "type": "uint256"
        }
      ],
      "name": "tokenPrices",
      "outputs": [
        {
          "internalType": "uint256",
          "name": "",
          "type": "uint256"
        }
      ],
      "stateMutability": "view",
      "type": "function"
    },
    {
      "inputs": [
        {
          "internalType": "uint256",
          "name": "tokenId",
          "type": "uint256"
        }
      ],
      "name": "tokenURI",
      "outputs": [
        {
          "internalType": "string",
          "name": "",
          "type": "string"
        }
      ],
      "stateMutability": "view",
      "type": "function"
    },
    {
      "inputs": [
        {
          "internalType": "address",
          "name": "from",
          "type": "address"
        },
        {
          "internalType": "address",
          "name": "to",
          "type": "address"
        },
        {
          "internalType": "uint256",
          "name": "tokenId",
          "type": "uint256"
        }
      ],
      "name": "transferFrom",
      "outputs": [],
      "stateMutability": "nonpayable",
      "type": "function"
    },
    {
      "inputs": [
        {
          "internalType": "address",
          "name": "from",
          "type": "address"
        },
        {
          "internalType": "address",
          "name": "to",
          "type": "address"
        },
        {
          "internalType": "uint256",
          "name": "tokenId",
          "type": "uint256"
        }
      ],
      "name": "transferNFT",
      "outputs": [],
      "stateMutability": "nonpayable",
      "type": "function"
    },
    {
      "inputs": [
        {
          "internalType": "address",
          "name": "newOwner",
          "type": "address"
        }
      ],
      "name": "transferOwnership",
      "outputs": [],
      "stateMutability": "nonpayable",
      "type": "function"
    },
    {
      "inputs": [
        {
          "internalType": "uint256",
          "name": "tokenId",
          "type": "uint256"
        }
      ],
      "name": "withdrawRefund",
      "outputs": [],
      "stateMutability": "nonpayable",
      "type": "function"
    }
  ],
  "bytecode": "0x60806040526000600a553480156200001657600080fd5b503360405180604001604052806008815260200167135bdbdd9953919560c21b8152506040518060400160405280600381526020016213559560ea1b8152508160009081620000669190620001b5565b506001620000758282620001b5565b50506001600655506001600160a01b038116620000ac57604051631e4fbdf760e01b81526000600482015260240160405180910390fd5b620000b781620000be565b5062000281565b600780546001600160a01b038381166001600160a01b0319831681179093556040519116919082907f8be0079c531659141344cd1fd0a4f28419497f9722a3daafe3b4186f6b6457e090600090a35050565b634e487b7160e01b600052604160045260246000fd5b600181811c908216806200013b57607f821691505b6020821081036200015c57634e487b7160e01b600052602260045260246000fd5b50919050565b601f821115620001b057600081815260208120601f850160051c810160208610156200018b5750805b601f850160051c820191505b81811015620001ac5782815560010162000197565b5050505b505050565b81516001600160401b03811115620001d157620001d162000110565b620001e981620001e2845462000126565b8462000162565b602080601f831160018114620002215760008415620002085750858301515b600019600386901b1c1916600185901b178555620001ac565b600085815260208120601f198616915b82811015620002525788860151825594840194600190910190840162000231565b5085821015620002715787850151600019600388901b60f8161c191681555b5050505050600190811b01905550565b61262a80620002916000396000f3fe60806040526004361061021a5760003560e01c806370a0823111610123578063b14c63c5116100ab578063e985e9c51161006f578063e985e9c514610694578063ef4aa80b146106b4578063f2824b53146106e5578063f2fde38b14610705578063f4bf28a01461072557600080fd5b8063b14c63c5146105cd578063b88d4fde146105fa578063c87b56dd1461061a578063e5afe3e61461063a578063e75722301461066757600080fd5b80638da5cb5b116100f25780638da5cb5b1461052d57806395d89b411461054b5780639d153495146105605780639fc5540914610580578063a22cb465146105ad57600080fd5b806370a08231146104b2578063715018a6146104d257806375794a3c146104e75780638546d002146104fd57600080fd5b806342842e0e116101a65780634fee13fc116101755780634fee13fc1461041257806358dc2cdb146104325780636352211e146104525780636739f3a41461047257806369e9cae11461049257600080fd5b806342842e0e14610363578063451df52e14610383578063454a2ab3146103b9578063454cc4bc146103cc57600080fd5b80630fd48884116101ed5780630fd48884146102d0578063150bde03146102f05780631c35f962146103035780631f4f5a231461032357806323b872dd1461034357600080fd5b806301ffc9a71461021f57806306fdde0314610254578063081812fc14610276578063095ea7b3146102ae575b600080fd5b34801561022b57600080fd5b5061023f61023a366004611ead565b610752565b60405190151581526020015b60405180910390f35b34801561026057600080fd5b506102696107a4565b60405161024b9190611f1a565b34801561028257600080fd5b50610296610291366004611f2d565b610836565b6040516001600160a01b03909116815260200161024b565b3480156102ba57600080fd5b506102ce6102c9366004611f62565b61085f565b005b3480156102dc57600080fd5b506102ce6102eb366004612038565b61086e565b6102ce6102fe366004611f2d565b61091c565b34801561030f57600080fd5b506102ce61031e3660046120ca565b610b3f565b34801561032f57600080fd5b5061026961033e366004611f2d565b610bc1565b34801561034f57600080fd5b506102ce61035e3660046120ec565b610c63565b34801561036f57600080fd5b506102ce61037e3660046120ec565b610cee565b34801561038f57600080fd5b5061029661039e366004611f2d565b600b602052600090815260409020546001600160a01b031681565b6102ce6103c7366004611f2d565b610d0e565b3480156103d857600080fd5b506104046103e7366004612128565b600d60209081526000928352604080842090915290825290205481565b60405190815260200161024b565b34801561041e57600080fd5b506102ce61042d3660046120ca565b610f0d565b34801561043e57600080fd5b506102ce61044d366004611f2d565b610ff2565b34801561045e57600080fd5b5061029661046d366004611f2d565b6110d8565b34801561047e57600080fd5b5061040461048d366004611f2d565b6110e3565b34801561049e57600080fd5b506102ce6104ad3660046120ec565b61114a565b3480156104be57600080fd5b506104046104cd366004612154565b6111b4565b3480156104de57600080fd5b506102ce6111fc565b3480156104f357600080fd5b50610404600a5481565b34801561050957600080fd5b5061023f610518366004611f2d565b60096020526000908152604090205460ff1681565b34801561053957600080fd5b506007546001600160a01b0316610296565b34801561055757600080fd5b50610269611210565b34801561056c57600080fd5b506102ce61057b366004611f2d565b61121f565b34801561058c57600080fd5b5061040461059b366004611f2d565b600e6020526000908152604090205481565b3480156105b957600080fd5b506102ce6105c836600461216f565b6112d9565b3480156105d957600080fd5b506104046105e8366004611f2d565b600c6020526000908152604090205481565b34801561060657600080fd5b506102ce6106153660046121ab565b6112e4565b34801561062657600080fd5b50610269610635366004611f2d565b6112fb565b34801561064657600080fd5b50610404610655366004611f2d565b60086020526000908152604090205481565b34801561067357600080fd5b50610404610682366004611f2d565b60009081526008602052604090205490565b3480156106a057600080fd5b5061023f6106af36600461221b565b611370565b3480156106c057600080fd5b506106d46106cf3660046120ca565b61139e565b60405161024b959493929190612245565b3480156106f157600080fd5b50610269610700366004611f2d565b611486565b34801561071157600080fd5b506102ce610720366004612154565b611520565b34801561073157600080fd5b50610745610740366004611f2d565b61155b565b60405161024b919061228a565b60006001600160e01b031982166380ac58cd60e01b148061078357506001600160e01b03198216635b5e139f60e01b145b8061079e57506301ffc9a760e01b6001600160e01b03198316145b92915050565b6060600080546107b39061232b565b80601f01602080910402602001604051908101604052809291908181526020018280546107df9061232b565b801561082c5780601f106108015761010080835404028352916020019161082c565b820191906000526020600020905b81548152906001019060200180831161080f57829003601f168201915b5050505050905090565b600061084182611697565b506000828152600460205260409020546001600160a01b031661079e565b61086a8282336116d0565b5050565b6108766116dd565b61089361088b6007546001600160a01b031690565b600a5461170a565b600a5460009081526008602090815260409182902086905590516108bd9185918591859101612365565b60408051601f19818403018152918152600a546000908152600f60205220906108e6908261243f565b50600a80546000908152600960205260408120805460ff191660011790558154919061091183612515565b919050555050505050565b61092461176f565b60008181526009602052604090205460ff1661097a5760405162461bcd60e51b815260206004820152601060248201526f4e4654206e6f7420666f722073616c6560801b60448201526064015b60405180910390fd5b33610984826110d8565b6001600160a01b0316036109da5760405162461bcd60e51b815260206004820152601f60248201527f43726561746f722063616e6e6f74207075726368617365206f776e204e4654006044820152606401610971565b600081815260086020526040902054341015610a2d5760405162461bcd60e51b8152602060048201526012602482015271496e73756666696369656e742066756e647360701b6044820152606401610971565b6000818152600960209081526040808320805460ff191690556010825291829020825160a0810190935233835291908101610a67846110d8565b6001600160a01b039081168252346020808401919091524260408085019190915280518082018252600f81526e44697265637420507572636861736560881b81840152606094850152855460018181018855600097885296839020865160059092020180549185166001600160a01b031992831617815592860151968301805497909416961695909517909155928201516002840155810151600383015560808101519091906004820190610b1c908261243f565b505050610b32610b2b826110d8565b3383611799565b610b3c6001600655565b50565b33610b49836110d8565b6001600160a01b031614610b995760405162461bcd60e51b815260206004820152601760248201527621b0b63632b91034b9903737ba103a34329037bbb732b960491b6044820152606401610971565b600091825260086020908152604080842092909255600990529020805460ff19166001179055565b6000818152600f60205260409020805460609190610bde9061232b565b80601f0160208091040260200160405190810160405280929190818152602001828054610c0a9061232b565b8015610c575780601f10610c2c57610100808354040283529160200191610c57565b820191906000526020600020905b815481529060010190602001808311610c3a57829003601f168201915b50505050509050919050565b6001600160a01b038216610c8d57604051633250574960e11b815260006004820152602401610971565b6000610c9a838333611849565b9050836001600160a01b0316816001600160a01b031614610ce8576040516364283d7b60e01b81526001600160a01b0380861660048301526024820184905282166044820152606401610971565b50505050565b610d09838383604051806020016040528060008152506112e4565b505050565b610d1661176f565b6000818152600e60205260409020544210610d635760405162461bcd60e51b815260206004820152600d60248201526c105d58dd1a5bdb88195b991959609a1b6044820152606401610971565b6000818152600c60205260409020543411610dae5760405162461bcd60e51b815260206004820152600b60248201526a42696420746f6f206c6f7760a81b6044820152606401610971565b6000818152600c602052604090205415610e0a576000818152600c6020908152604080832054600d8352818420600b8452828520546001600160a01b031685529092528220805491929091610e0490849061252e565b90915550505b6000818152601060209081526040808320815160a081018352338152858552600b8452828520546001600160a01b039081168286019081523483860190815242606085019081528651808801909752600787526620bab1ba34b7b760c91b8789015260808501968752855460018181018855968a5297909820845160059098020180549784166001600160a01b03199889161781559151948201805495909316949096169390931790559251600282015592516003840155519091906004820190610ed5908261243f565b5050506000818152600b6020908152604080832080546001600160a01b03191633179055600c9091529020349055610b3c6001600655565b610f156116dd565b6007546001600160a01b0316610f2a836110d8565b6001600160a01b031614610f7a5760405162461bcd60e51b815260206004820152601760248201527621b0b63632b91034b9903737ba103a34329037bbb732b960491b6044820152606401610971565b60008111610fbd5760405162461bcd60e51b815260206004820152601060248201526f24b73b30b634b210323ab930ba34b7b760811b6044820152606401610971565b6000610fcc8262015180612541565b90506000610fda824261252e565b6000948552600e602052604090942093909355505050565b6000818152600e60205260409020544210156110485760405162461bcd60e51b8152602060048201526015602482015274105d58dd1a5bdb881b9bdd081e595d08195b991959605a1b6044820152606401610971565b6000818152600b60205260409020546001600160a01b031633146110a35760405162461bcd60e51b81526020600482015260126024820152712737ba103434b3b432b9ba103134b23232b960711b6044820152606401610971565b6110af610b2b826110d8565b6000908152600b6020908152604080832080546001600160a01b0319169055600c909152812055565b600061079e82611697565b6000818152600e602052604081205442106111305760405162461bcd60e51b815260206004820152600d60248201526c105d58dd1a5bdb88195b991959609a1b6044820152606401610971565b6000828152600e602052604090205461079e904290612558565b61115d611156826110d8565b3383611942565b6111a95760405162461bcd60e51b815260206004820181905260248201527f43616c6c6572206973206e6f74206f776e6572206e6f7220617070726f7665646044820152606401610971565b610d09838383611799565b60006001600160a01b0382166111e0576040516322718ad960e21b815260006004820152602401610971565b506001600160a01b031660009081526003602052604090205490565b6112046116dd565b61120e60006119a8565b565b6060600180546107b39061232b565b61122761176f565b6000818152600d6020908152604080832033808552925280832080549084905590519092919083908381818185875af1925050503d8060008114611287576040519150601f19603f3d011682016040523d82523d6000602084013e61128c565b606091505b50509050806112cd5760405162461bcd60e51b815260206004820152600d60248201526c1499599d5b990819985a5b1959609a1b6044820152606401610971565b5050610b3c6001600655565b61086a3383836119fa565b6112ef848484610c63565b610ce884848484611a99565b606061130682611697565b50600061131e60408051602081019091526000815290565b9050600081511161133e5760405180602001604052806000815250611369565b8061134884611bc2565b60405160200161135992919061256b565b6040516020818303038152906040525b9392505050565b6001600160a01b03918216600090815260056020908152604080832093909416825291909152205460ff1690565b601060205281600052604060002081815481106113ba57600080fd5b6000918252602090912060059091020180546001820154600283015460038401546004850180546001600160a01b0395861698509390941695509093909290916114039061232b565b80601f016020809104026020016040519081016040528092919081815260200182805461142f9061232b565b801561147c5780601f106114515761010080835404028352916020019161147c565b820191906000526020600020905b81548152906001019060200180831161145f57829003601f168201915b5050505050905085565b600f602052600090815260409020805461149f9061232b565b80601f01602080910402602001604051908101604052809291908181526020018280546114cb9061232b565b80156115185780601f106114ed57610100808354040283529160200191611518565b820191906000526020600020905b8154815290600101906020018083116114fb57829003601f168201915b505050505081565b6115286116dd565b6001600160a01b03811661155257604051631e4fbdf760e01b815260006004820152602401610971565b610b3c816119a8565b606060106000838152602001908152602001600020805480602002602001604051908101604052809291908181526020016000905b8282101561168c5760008481526020908190206040805160a0810182526005860290920180546001600160a01b03908116845260018201541693830193909352600283015490820152600382015460608201526004820180549192916080840191906115fb9061232b565b80601f01602080910402602001604051908101604052809291908181526020018280546116279061232b565b80156116745780601f1061164957610100808354040283529160200191611674565b820191906000526020600020905b81548152906001019060200180831161165757829003601f168201915b50505050508152505081526020019060010190611590565b505050509050919050565b6000818152600260205260408120546001600160a01b03168061079e57604051637e27328960e01b815260048101849052602401610971565b610d098383836001611c55565b6007546001600160a01b0316331461120e5760405163118cdaa760e01b8152336004820152602401610971565b6001600160a01b03821661173457604051633250574960e11b815260006004820152602401610971565b600061174283836000611849565b90506001600160a01b03811615610d09576040516339e3563760e11b815260006004820152602401610971565b60026006540361179257604051633ee5aeb560e01b815260040160405180910390fd5b6002600655565b6001600160a01b0382166117c357604051633250574960e11b815260006004820152602401610971565b60006117d183836000611849565b90506001600160a01b0381166117fd57604051637e27328960e01b815260048101839052602401610971565b836001600160a01b0316816001600160a01b031614610ce8576040516364283d7b60e01b81526001600160a01b0380861660048301526024820184905282166044820152606401610971565b6000828152600260205260408120546001600160a01b039081169083161561187657611876818486611d5b565b6001600160a01b038116156118b457611893600085600080611c55565b6001600160a01b038116600090815260036020526040902080546000190190555b6001600160a01b038516156118e3576001600160a01b0385166000908152600360205260409020805460010190555b60008481526002602052604080822080546001600160a01b0319166001600160a01b0389811691821790925591518793918516917fddf252ad1be2c89b69c2b068fc378daa952ba7f163c4a11628f55a4df523b3ef91a4949350505050565b60006001600160a01b038316158015906119a05750826001600160a01b0316846001600160a01b0316148061197c575061197c8484611370565b806119a057506000828152600460205260409020546001600160a01b038481169116145b949350505050565b600780546001600160a01b038381166001600160a01b0319831681179093556040519116919082907f8be0079c531659141344cd1fd0a4f28419497f9722a3daafe3b4186f6b6457e090600090a35050565b6001600160a01b038216611a2c57604051630b61174360e31b81526001600160a01b0383166004820152602401610971565b6001600160a01b03838116600081815260056020908152604080832094871680845294825291829020805460ff191686151590811790915591519182527f17307eab39ab6107e8899845ad3d59bd9653f200f220920489ca2b5937696c31910160405180910390a3505050565b6001600160a01b0383163b15610ce857604051630a85bd0160e11b81526001600160a01b0384169063150b7a0290611adb90339088908790879060040161259a565b6020604051808303816000875af1925050508015611b16575060408051601f3d908101601f19168201909252611b13918101906125d7565b60015b611b7f573d808015611b44576040519150601f19603f3d011682016040523d82523d6000602084013e611b49565b606091505b508051600003611b7757604051633250574960e11b81526001600160a01b0385166004820152602401610971565b805181602001fd5b6001600160e01b03198116630a85bd0160e11b14611bbb57604051633250574960e11b81526001600160a01b0385166004820152602401610971565b5050505050565b60606000611bcf83611dbf565b600101905060008167ffffffffffffffff811115611bef57611bef611f8c565b6040519080825280601f01601f191660200182016040528015611c19576020820181803683370190505b5090508181016020015b600019016f181899199a1a9b1b9c1cb0b131b232b360811b600a86061a8153600a8504945084611c2357509392505050565b8080611c6957506001600160a01b03821615155b15611d2b576000611c7984611697565b90506001600160a01b03831615801590611ca55750826001600160a01b0316816001600160a01b031614155b8015611cb85750611cb68184611370565b155b15611ce15760405163a9fbf51f60e01b81526001600160a01b0384166004820152602401610971565b8115611d295783856001600160a01b0316826001600160a01b03167f8c5be1e5ebec7d5bd14f71427d1e84f3dd0314c0f7b2291e5b200ac8c7c3b92560405160405180910390a45b505b5050600090815260046020526040902080546001600160a01b0319166001600160a01b0392909216919091179055565b611d66838383611942565b610d09576001600160a01b038316611d9457604051637e27328960e01b815260048101829052602401610971565b60405163177e802f60e01b81526001600160a01b038316600482015260248101829052604401610971565b60008072184f03e93ff9f4daa797ed6e38ed64bf6a1f0160401b8310611dfe5772184f03e93ff9f4daa797ed6e38ed64bf6a1f0160401b830492506040015b6d04ee2d6d415b85acef81000000008310611e2a576d04ee2d6d415b85acef8100000000830492506020015b662386f26fc100008310611e4857662386f26fc10000830492506010015b6305f5e1008310611e60576305f5e100830492506008015b6127108310611e7457612710830492506004015b60648310611e86576064830492506002015b600a831061079e5760010192915050565b6001600160e01b031981168114610b3c57600080fd5b600060208284031215611ebf57600080fd5b813561136981611e97565b60005b83811015611ee5578181015183820152602001611ecd565b50506000910152565b60008151808452611f06816020860160208601611eca565b601f01601f19169290920160200192915050565b6020815260006113696020830184611eee565b600060208284031215611f3f57600080fd5b5035919050565b80356001600160a01b0381168114611f5d57600080fd5b919050565b60008060408385031215611f7557600080fd5b611f7e83611f46565b946020939093013593505050565b634e487b7160e01b600052604160045260246000fd5b600067ffffffffffffffff80841115611fbd57611fbd611f8c565b604051601f8501601f19908116603f01168101908282118183101715611fe557611fe5611f8c565b81604052809350858152868686011115611ffe57600080fd5b858560208301376000602087830101525050509392505050565b600082601f83011261202957600080fd5b61136983833560208501611fa2565b6000806000806080858703121561204e57600080fd5b84359350602085013567ffffffffffffffff8082111561206d57600080fd5b61207988838901612018565b9450604087013591508082111561208f57600080fd5b61209b88838901612018565b935060608701359150808211156120b157600080fd5b506120be87828801612018565b91505092959194509250565b600080604083850312156120dd57600080fd5b50508035926020909101359150565b60008060006060848603121561210157600080fd5b61210a84611f46565b925061211860208501611f46565b9150604084013590509250925092565b6000806040838503121561213b57600080fd5b8235915061214b60208401611f46565b90509250929050565b60006020828403121561216657600080fd5b61136982611f46565b6000806040838503121561218257600080fd5b61218b83611f46565b9150602083013580151581146121a057600080fd5b809150509250929050565b600080600080608085870312156121c157600080fd5b6121ca85611f46565b93506121d860208601611f46565b925060408501359150606085013567ffffffffffffffff8111156121fb57600080fd5b8501601f8101871361220c57600080fd5b6120be87823560208401611fa2565b6000806040838503121561222e57600080fd5b61223783611f46565b915061214b60208401611f46565b6001600160a01b03868116825285166020820152604081018490526060810183905260a06080820181905260009061227f90830184611eee565b979650505050505050565b60006020808301818452808551808352604092508286019150828160051b87010184880160005b8381101561231d57888303603f19018552815180516001600160a01b03908116855288820151168885015286810151878501526060808201519085015260809081015160a09185018290529061230981860183611eee565b9689019694505050908601906001016122b1565b509098975050505050505050565b600181811c9082168061233f57607f821691505b60208210810361235f57634e487b7160e01b600052602260045260246000fd5b50919050565b6702930b934ba3c9d160c51b815260008451612388816008850160208901611eca565b6b016102234b9b1b7bab73a1d160a51b60089184019182015284516123b4816014840160208901611eca565b6e016102234b9b1b7bab73a1027b71d1608d1b6014929091019182015283516123e4816023840160208801611eca565b0160230195945050505050565b601f821115610d0957600081815260208120601f850160051c810160208610156124185750805b601f850160051c820191505b8181101561243757828155600101612424565b505050505050565b815167ffffffffffffffff81111561245957612459611f8c565b61246d81612467845461232b565b846123f1565b602080601f8311600181146124a2576000841561248a5750858301515b600019600386901b1c1916600185901b178555612437565b600085815260208120601f198616915b828110156124d1578886015182559484019460019091019084016124b2565b50858210156124ef5787850151600019600388901b60f8161c191681555b5050505050600190811b01905550565b634e487b7160e01b600052601160045260246000fd5b600060018201612527576125276124ff565b5060010190565b8082018082111561079e5761079e6124ff565b808202811582820484141761079e5761079e6124ff565b8181038181111561079e5761079e6124ff565b6000835161257d818460208801611eca565b835190830190612591818360208801611eca565b01949350505050565b6001600160a01b03858116825284166020820152604081018390526080606082018190526000906125cd90830184611eee565b9695505050505050565b6000602082840312156125e957600080fd5b815161136981611e9756fea26469706673582212203f91cdb844e2663418efd62f95de77af7451341891e045526ebf72e50529f99864736f6c63430008140033",
  "linkReferences": {},
  "deployedLinkReferences": {}
}